:020000040800F2
:10000000700D002099020008531F0008531D0008BE
:10001000511F0008F3040008F32700080000000047
:10002000000000000000000000000000E91F0008C0
:10003000F504000800000000551F0008EB1F000831
:10004000B3020008B3020008B3020008B3020008BC
:10005000B3020008B3020008B3020008B3020008AC
:10006000B3020008B3020008B3020008B30200089C
:10007000B3020008B3020008B3020008B30200088C
:10008000B3020008B3020008B3020008B30200087C
:10009000B3020008B3020008B3020008B30200086C
:1000A000B3020008B3020008B3020008B30200085C
:1000B000B3020008B3020008B3020008B30200084C
:1000C000B3020008B3020008B3020008B30200083C
:1000D000B3020008B3020008B3020008B30200082C
:1000E000B3020008B3020008B3020008B30200081C
:1000F000B3020008B3020008B3020008B30200080C
:10010000B3020008B3020008B3020008B3020008FB
:10011000B3020008B3020008B3020008B3020008EB
:10012000B3020008B3020008B3020008B3020008DB
:10013000B3020008B3020008B3020008B3020008CB
:10014000B3020008B3020008B3020008B3020008BB
:10015000B3020008B3020008B3020008B3020008AB
:10016000B3020008B3020008B3020008B30200089B
:10017000B3020008B3020008B30200080000000048
:10018000B3020008B3020008B3020008B30200087B
:10019000B3020008B3020008B3020008B30200086B
:1001A000B3020008B3020008B3020008B30200085B
:1001B000B3020008B3020008B3020008B30200084B
:1001C000B3020008B302000800000000B3020008F8
:1001D000B3020008B3020008B3020008B30200082B
:1001E000B3020008B3020008B3020008B30200081B
:1001F000B3020008B302000800F002F800F03CF877
:100200000AA090E8000C82448344AAF10107DA4571
:1002100001D100F031F8AFF2090EBAE80F0013F087
:10022000010F18BFFB1A43F001031847142B0000FD
:10023000342B0000103A24BF78C878C1FAD852078E
:1002400024BF30C830C144BF04680C607047000050
:100250000023002400250026103A28BF78C1FBD8CF
:10026000520728BF30C148BF0B6070471FB502F06E
:1002700055FC1FBD10B510BD00F001F91146FFF788
:10028000F5FF02F033FB00F01FF903B4FFF7F2FFB4
:1002900003BC00F027F900000948804709480047DF
:1002A000FEE7FEE7FEE7FEE7FEE7FEE7FEE7FEE726
:1002B000FEE7FEE704480549054A064B7047000083
:1002C00099200008F901000870070020700D002037
:1002D000700900207009002053EA020C00F06980C8
:1002E0002DE9F04B4FF00006002B1FBFB3FA83F54A
:1002F00003FA05F424FA05F65E4012BF1643B2FA7B
:1003000082F502FA05F4C5F120051EBF22FA05FCAC
:1003100044EA0C04203556EA044C4FEA144418BF52
:10032000641C4FF000084FF00009904271EB030C81
:1003300039D3002919BFB1FA81F701FA07F6B0FAEB
:1003400080F700FA07F6C7F120071EBF20FA07FC66
:1003500046EA0C062037B6FBF4FCA7EB0507103F76
:1003600007F01F0BCBF120060CFA0BFB2CFA06F65C
:1003700044BFB3460026202FA4BF5E464FF0000BBB
:100380005BEA060C08BF4FF0010B19EB0B09ABFB46
:10039000027C48EB0608C01B06FB02CC0BFB03CC1F
:1003A00071EB0C01C1E70B46024641464846BDE8E9
:1003B000F08B13B54FF000004FF00001AFF3008059
:1003C000BDE81C40704710B5203AC0F00B80B1E882
:1003D0001850203AA0E81850B1E81850A0E818507A
:1003E000BFF4F5AF5FEA027C24BFB1E81850A0E883
:1003F000185044BF18C918C0BDE810405FEA827C9D
:1004000024BF51F8043B40F8043B08BF7047D207B3
:1004100028BF31F8023B48BF11F8012B28BF20F854
:10042000023B48BF00F8012B70474FF0000200B5B7
:10043000134694469646203922BFA0E80C50A0E807
:100440000C50B1F12001BFF4F7AF090728BFA0E8B5
:100450000C5048BF0CC05DF804EB890028BF40F881
:10046000042B08BF704748BF20F8022B11F0804FC3
:1004700018BF00F8012B70477047704770477546EA
:1004800000F02CF8AE4605006946534620F0070000
:10049000854618B020B5FFF70DFFBDE820404FF0AE
:1004A00000064FF000074FF000084FF0000B21F05E
:1004B0000701AC46ACE8C009ACE8C009ACE8C0092B
:1004C000ACE8C0098D46704710B50446AFF3008014
:1004D0002046BDE81040FFF7D8BE00000048704736
:1004E0001007002001491820ABBEFEE726000200DD
:1004F0007047FEE770470000F0B5002344F2F8565D
:100500004FF000451A4600BF016902EB820401EB7F
:10051000C4010B604B608B60CB600B620D604B6263
:100520004E60D1F804C0032A00EB82072CF0004C87
:10053000C1F804C0B96406D207694FF0280C0CEB6F
:10054000C4043C4400E00469CC60521C042ADBD3A0
:10055000C36503668366C36683650168006901F548
:100560008051C860F0BD70B5A4B0064600240125D6
:100570008DF81050A80302948DF81150C1108DF819
:100580001F408DF804508DF820408DF81E508DF8D6
:100590000F4009948DF828408DF856408DF81C4086
:1005A00012948DF84C4014948DF85440CDE9050117
:1005B000694630468DF8554000F084F828048DF8DF
:1005C00070508DF881508DF8715081011E94C210C9
:1005D0008DF880408DF888508DF872508DF88240EB
:1005E0008DF868501D92239421941F9119A91B9096
:1005F00030468DF88950199400F002F824B070BD8F
:100600002DE9F0410C4601682D4A054601F580515F
:10061000237B886900EA0200F3B30022667B637FD4
:10062000920642EA4662C3B30023A67B676942EAA8
:100630000352237F42EA4652A67F3A43276A42EAA0
:10064000C31294F8243042EA86123A4342EA830203
:1006500002438A61286800F580508669012000F015
:10066000BDF8286800F5805086612679A169A068E8
:100670002369084394F8252043EA4661A36A0843A6
:10068000246840EAC210296840EA8300204340F40D
:10069000000001F5805101E00EE00FE008602868DD
:1006A00000F580500468012000F098F8286800F5F3
:1006B00080500460BDE8F0810122AFE70123B4E778
:1006C000233FDEF82DE9F0410546087C414B0C46FE
:1006D000896800282A68106800EA030069D00023AE
:1006E000667C002E41EAC35165D00023E67F94F872
:1006F0001EC09B05676943EA06431943BCF1000F1E
:1007000041EA070159D0002394F81CC02779A66953
:1007100041EA433141EA0C3194F82030314341EA57
:100720008726EBB30021E37B94F8287046EA412149
:10073000666A41EAC311314341EA0711014311607E
:1007400028680668012000F049F828684FF64177CC
:1007500006602A6894F84C60A36C216D906941EAA8
:10076000034138406EB3002394F85570DE01012F29
:1007700029D0002394F8567046EAC3031943012F89
:1007800023D0002394F85440012C41EA83011ED069
:100790005FF0000341EA430101439161286800E0F2
:1007A0000DE08469012000F019F828688461BDE833
:1007B000F081012394E7012398E70123A4E70121B5
:1007C000B1E70123D0E70123D4E70123DAE70123CE
:1007D000E0E700000F8120FF72B6FEE770B5044627
:1007E00000F042FA0546601C02D004480078044438
:1007F00000F03AFA401BA042FAD370BD0800002076
:10080000F8B5040003D0D4F8840010B107E001204B
:10081000F8BD2320C4F88400204600F07FF83C484F
:10082000016841F480410160006800F4804000905C
:100830003848016821F4000101600168A268114391
:1008400001600068206800F58050016841F00101F6
:10085000016000F009FA4FF4FA7605460CE000BF9B
:1008600000F002FA401BB04206D90421C4F88810F7
:10087000E020C4F88400CAE7206800F580500068D2
:10088000C007EDD12046FFF76EFE00254FEA0501B7
:10089000E668032901EB810204EB810306EBC20049
:1008A000056045608560C5609861036843F4801306
:1008B000036005D2E368282606EBC2021A4400E072
:1008C000E268C2600268491C042942F440020260E6
:1008D000DED3A5622068E16800F580500161204602
:1008E000FFF70AFE60680C4982880A648278C6783D
:1008F00047780378120443EA066042EA072210436D
:1009000048641020C4F88850C4F884000020F8BD62
:10091000443802400438014000800240F0B587B0FE
:10092000044614216846FFF780FD3049206888425C
:1009300059D12F48016841F000710160016801F050
:1009400000710591016841F080610160016801F06A
:1009500080610591016841F000610160016801F06A
:1009600000610591016841F004010160016801F036
:1009700004010591016841F001010160016801F085
:1009800001010591016841F002010160016801F077
:1009900002010591016841F04001016000680224F4
:1009A0000025694600F04000059003260B27322001
:1009B0008DE8F1000F4800F025F8862069468DE8A3
:1009C000F1000D4800F01EF8200369468DE8F100A3
:1009D0000A4800F017F84FF4205069468DE8F100FE
:1009E000074800F00FF807B0F0BD0000008002409B
:1009F000303802400008024000000240000402407B
:100A0000001802402DE9F84FDFF80CB2012403254D
:100A10004FF00F0A00220BF1040E00BF0B6804FA1E
:100A200002F63340B34278D10F7907F00307012F64
:100A300001D0022F1AD187684FEA4209D1F80CC0C1
:100A400005FA09F827EA08070CFA09FC4CEA070C32
:100A5000C0F808C0476891F804C0B743CCF3001C45
:100A60000CFA02FC4CEA070CC0F804C00E79F643FD
:100A7000B6070BD0C6684FEA420C8F6805FA0CF82F
:100A800026EA080607FA0CF73743C7600E7906F026
:100A90000306022E12D1D6084FEA427800EB8606F2
:100AA00000960F69D6F820904FEAD8660AFA06FC3D
:100AB000B74029EA0C063743009E37620F79066873
:100AC0004FEA420C07F0030705FA0CF807FA0CF797
:100AD00026EA0806374307604E6816F4403F1CD0EC
:100AE0004E4E376847F480473760366822F0030877
:100AF000970706F480460096494E3F0F4644B1469C
:100B0000D6F80868DFF81C810AFA07FC404526EA97
:100B10000C0603D14FF0000C41E076E0DFF808C18D
:100B2000604502D14FF0010C39E0DFF800C16045AB
:100B300002D14FF0020C32E0DFF8F4C0604502D180
:100B40004FF0030C2BE0DFF8ECC0604502D14FF012
:100B5000040C24E0DFF8E0C0604502D14FF0050C42
:100B60001DE0DFF8D8C0604502D14FF0060C16E05A
:100B7000DFF8CCC0604502D14FF0070C0FE0DFF882
:100B8000C4C0604502D14FF0080C08E0DFF8B8C0DF
:100B9000604502D14FF0090C01E04FF00A0C0CFA4D
:100BA00007FC4CEA060CC9F808C84F68DBF800607F
:100BB000FF0226EA030600D51E437746CBF8006005
:100BC000D1F804C0DEF800605FEA8C2C26EA030648
:100BD00000D51E43DFF840C03E60ACF1040C4F6806
:100BE000DCF80060BF0326EA030600D51E430A4F67
:100BF000CCF80060083FD1F804C03E685FEACC3C06
:100C000026EA030600D51E433E60521C102AFFF45C
:100C100005AFBDE8F88F0000083C014044380240B1
:100C20000030014000000240000402400008024081
:100C3000000C024000100240001402400018024064
:100C4000001C02400020024000240240426921EAC8
:100C500002030A4043EA0241816170470AB181619F
:100C600070470904FBE700000148806870470000F6
:100C700008000020024881680278114481607047B2
:100C800008000020032010B500F060F8002000F0FC
:100C900005F800F023F8002010BD000070B50D4DE0
:100CA00004464FF47A700C4A29781268B0FBF1F0D0
:100CB000B2FBF0F000F0CEFE48B9102C07D20022B3
:100CC0002146501E00F022F800206C6070BD01200B
:100CD00070BD000008000020140000200A4808B57C
:100CE000016841F080510160006800F08050009080
:100CF0000548001D016841F480410160006800F46E
:100D00008040009008BD0000403802400E4BF0B417
:100D10001B680D46C3F30223C3F10706042E00D956
:100D20000426191D072901D2002300E0DB1E01243F
:100D300004FA06F19C40491E2940641E9940144063
:100D40002143F0BC01F056BD0CED00E0064900F077
:100D5000070210B54FF6FF040868044B204040EA34
:100D600002201843086010BD0CED00E00000FA05F9
:100D700001680123C0F80035002280F8F424886956
:100D8000044A40F000608861486D104348650020C7
:100D900070470000030000102DE9F04104008AB004
:100DA00005D094F8BD040025266820B108E0012094
:100DB0000AB0BDE8F081204684F8BC5400F066F823
:100DC000032084F8BD04F06BC00500D425612068C1
:100DD00001F09CFC04F11001684628228846FFF7C8
:100DE000F2FA94E80F0001F071FB0227D8BB2068EB
:100DF000002101F0CFFC0020012610E000EBC00133
:100E0000421C04EB810181F83D6081F840508D6403
:100E1000CD644D6581F83C00A1F84400D0B2616812
:100E20008142EBD8002011E000EBC001421C04EB32
:100E3000810181F87D5281F88052C1F88852C1F851
:100E40008C52C1F8945281F87C02D0B26168814220
:100E5000EAD8282241466846FFF7B5FA94E80F0021
:100E600001F098FB10B184F8BD74A0E7606A84F8C3
:100E7000385084F8BD64012802D12046FFF778FF7E
:100E8000206801F079FB002092E7000030B5ABB09C
:100E90000446142124A8FFF7C8FA90216846FFF7FA
:100EA000C4FA2068B0F1A04F3ED14FF4001000907A
:100EB000002468461F9400F07BF808B1FFF78CFC13
:100EC0001A48016841F001010160006824AD022167
:100ED00000F0010029904FF4E85085E813000A2340
:100EE000134D032224A92846CDE92723FFF78AFDC5
:100EF00068152694CDE9240424A92846FFF782FD2D
:100F00000A48001D016841F080010160006800F09E
:100F10008000299005481430016841F48041016047
:100F2000006800F4804029902BB030BD303802407A
:100F3000000002401848F8B5016841F08051016096
:100F40000068164C00F080500090206840F480301B
:100F50002060FFF789FE4FF47A76054605E000BF72
:100F6000FFF782FE401BB0420FD86068C003F7D580
:100F7000206840F400302060FFF776FE054606E06A
:100F8000FFF772FE401BB04201D90320F8BD606834
:100F90008003F5D50020F8BD4038024000700040C5
:100FA0000248016841F480710160704700700040A0
:100FB0002DE9F84F04460078DFF824944FF000063E
:100FC0003746C0070ED0D9F8001021F40001C9F847
:100FD0000010D9F80010626B1143C9F80010606B63
:100FE00000B90126FE4D2068843500030ED5E16B63
:100FF000286820F4401008432860E06BB0F5801F9B
:1010000001D010B102E0012600E0012720684FF472
:10101000800BC0020CD5216C286820F440000843E6
:101020002860206C584501D1012601E000B9012754
:101030002068C10100D50126800666D5E848383011
:10104000016841F0805101600068DFF898A300F06A
:1010500080500090DAF8001041F48071CAF8001056
:10106000FFF702FE804605E0FFF7FEFDA0EB08005B
:1010700064287DD8DAF80000C005F5D5DFF8608374
:1010800008F16808D8F8000010F440702AD0218ECA
:1010900001F44071814225D0D8F80010D8F8002022
:1010A00021F4407142F48032C8F80020D8F80020C2
:1010B00022F48032C8F80020C8F80010D8F80000E8
:1010C000C0070FD0FFF7D0FD824607E0FFF7CCFD49
:1010D000A0EB0A0141F288308142CAD8D8F800005A
:1010E0008007F3D5206BC0F3012103297ED0D9F806
:1010F000001021F4F811C9F80010228ED8F8001061
:10110000C2F30B021143C8F800102078C00607D5BF
:10111000286820F0807028602868A16B0843286048
:101120002188AF488830490405D5626E016821F4F2
:101130004031114301602188090405D5A26E016880
:1011400021F44021114301602168C90305D5E26EF5
:10115000016821F44011114301602168890305D51C
:10116000226F016821F4400111430160217800E001
:1011700034E1490605D5626C016821F00301114391
:1011800001602178090605D5A26C016821F00C01E7
:10119000114301602188C90505D5E26C016821F081
:1011A0003001114301602188890505D5226D016850
:1011B00021F0C001114301602188490505D5626D08
:1011C000016821F44071114301602188090505D5AA
:1011D000A26D016821F44061114301602188C904B6
:1011E00007D5E26D016821F4405100E068E0114349
:1011F00001602188890405D5226E016821F44041EF
:10120000114301602168490205D5A26F016821F0F0
:1012100080611143016021684FF0006A890209D59D
:10122000E26F016821F0006111430160E16F5145F7
:1012300000D1012721680A0700D50127490305D5F8
:10124000626F016821F04071114301602168090259
:1012500006D5D4F88020016821F080511143016047
:101260002168490106D5D4F88420016821F0005195
:10127000114301602068000106D5D4F88810286861
:1012800020F00070084328602068C00006D5D4F81C
:101290008C10286820F0806008432860DFF84891AF
:1012A000012E02D0206880017ED5D9F800004E467C
:1012B00020F08060C9F80000FFF7D6FC80460FE000
:1012C0004A4AD9F80030104023F4F8120243C9F812
:1012D000002012E7FFF7C8FCA0EB080064287DD8C7
:1012E00030680001F6D421783D487C30C90712D01F
:1012F000616B81B9237A62680168D0F800C09201FD
:10130000C1F3014142EA0142CCF3036142EA0161C7
:1013100041EA0371016021680A0303D5E26BB2F56B
:10132000801F04D0C9021AD5216C594517D16368B2
:10133000016894F80CC002689B01C1F3014143EAC3
:101340000141C2F3027241EA0C6141EA027101609B
:101350002968626A21F01F01521E11432960216829
:10136000C90110D5238A62680168D0F800C09201D3
:10137000C1F3036142EA034242EA0162CCF3027123
:1013800042EA01710160216889010CD56168228AF5
:10139000237B94F808C0890141EA024141EA0361D4
:1013A00041EA0C71016000E011E03168B04641F0A3
:1013B00080613160FFF758FC064604E0FFF754FCFB
:1013C000801B64280AD8D8F800000001F6D5E7B3DE
:1013D000D9F800004E4620F0805009E07BE0000084
:1013E000083802400070004000380240FFFCFF0F48
:1013F000C9F80000FFF738FC074604E0FFF734FCAB
:10140000C01B642867D83068C0438000F6D52168C7
:1014100035480A0301D5E26B1AB1C9021DD5216C0A
:10142000D9B963690168277E02689B01C1F3014154
:1014300043EA0143C2F3027143EA076242EA0171DF
:10144000016029686FF0FF0300E04BE0A26A21F41D
:10145000F85103EB0222114329602168890212D559
:10146000E16F51450FD1238C6269016807689201D1
:10147000C1F3036142EA034242EA0162C7F3027127
:1014800042EA017101602178090716D56169026895
:10149000D0F800C08B01277FC2F30362CCF3014177
:1014A00043EA014141EA026141EA077101602868AB
:1014B000E16A20F4403008432860306840F08050F2
:1014C0003060FFF7D1FB044608E000BFFFF7CCFB1C
:1014D000001B642802D90320BDE8F88F3068C043A0
:1014E0008000F3D40020F7E7883802402DE9F04768
:1014F00005000F4663D0444E306800F00F00B8423C
:1015000009D2306820F00F0038433060306800F0B6
:101510000F00B84253D128683C4C810712D54007D0
:1015200003D5206840F4E05020602878000703D5F8
:10153000206840F460402060A968206820F0F00036
:10154000084320602878C0072AD0304968680839E5
:10155000012810D00968022810D0890700292EDA46
:10156000216821F0030101432160FFF77DFB8046E4
:1015700041F288390DE009688903EFE78901EDE759
:10158000FFF772FBA0EB0801494502D90320BDE833
:10159000F0876868216801F00C01B1EB800FEFD192
:1015A000306800F00F00B8420BD9306820F00F000F
:1015B00038433060306800F00F00B84201D001209D
:1015C000E5E72878400705D5E968206820F4E05071
:1015D000084320602878000706D52869216821F48F
:1015E000604141EAC000206000F038F82168084AF4
:1015F000C1F30311515CC840064908600648006801
:10160000FFF74CFB0020C2E7003C024008380240D4
:10161000262D0008140000200C0000200449054875
:1016200009680068044AC1F38221515CC8407047D0
:101630000838024014000020362D000804490548EF
:1016400009680068044AC1F34231515CC8407047E0
:101650000838024014000020362D0008154910B546
:101660001548096811F00C0213D04110042A0FD05C
:10167000082A0ED10F4C241F2268236802F03F0273
:101680005B0207D52068C0F38810A0FB010106E0CB
:10169000084610BD2168C1F38811A1FB0001002399
:1016A000FEF71AFE2168C1F30141491C4900B0FB55
:1016B000F1F010BD083802400024F4002DE9F84F85
:1016C00004004FF000076ED02078DFF87CA3AAF169
:1016D0000408C007A8F104054CD0DAF80010504601
:1016E000C1F38101012908D00068C0F381000228FC
:1016F0000AD1D8F80000400206D52868800339D501
:1017000060680028DFD035E06068B0F5803F0BD01E
:1017100010B1B0F5A02F11D0286820F480302860D7
:10172000286820F4802002E0286840F48030286097
:10173000606890B1FFF798FA06460AE0286840F41E
:1017400080202860F0E700BFFFF78EFA801B642836
:1017500072D828688003F7D50CE0FFF785FA0646B3
:1017600005E000BFFFF780FA801B6428F0D82868E6
:101770008003F7D42078800742D5DAF8001050466D
:1017800011F00C0F08D00068C0F3810002280BD1C3
:10179000D8F80000400207D42868800718D5E06810
:1017A000012800D114E04AE1E0680028286817D039
:1017B00040F001002860FFF757FA064605E000BF39
:1017C000FFF752FA801B0228C2D828688007F7D595
:1017D0002069296821F0F80141EAC00028600FE083
:1017E00020F001002860FFF73FFA064605E000BF41
:1017F000FFF73AFA801B02281ED828688007F7D422
:101800002078000729D5904861696C30002981460D
:10181000016812D041F001010160FFF725FA064688
:1018200005E000BFFFF720FA801B022804D8D9F892
:1018300000008007F6D510E089E021F00101016089
:10184000FFF712FA064604E0FFF70EFA801B0228A3
:101850007DD8D9F800008007F6D4207840076BD5F2
:10186000DFF8E49109F13809D9F80000C0000BD481
:10187000D9F8001041F08051C9F80010D9F80000E3
:10188000012700F08050009070480168C90512D40B
:101890000168834641F480710160FFF7E5F906466F
:1018A00005E000BFFFF7E0F9801B64284FD8DBF8A4
:1018B0000000C005F6D5644EA068683601280AD03D
:1018C00008B1052811D0306820F001003060306880
:1018D00020F0040002E0306840F001003060A068B1
:1018E000A0B1FFF7C1F983460CE0306840F0040076
:1018F0003060F0E7FFF7B8F9A0EB0B0141F2883058
:10190000814268D830688007F4D50EE0FFF7ACF963
:10191000834607E0FFF7A8F9A0EB0B0141F28830FE
:10192000814258D830688007F4D42FB1D9F800101C
:1019300021F08051C9F80010A069E0B3DAF8001076
:10194000C1F3810102294DD00228286800E042E05D
:1019500020F08070286003D0FFF786F904463DE050
:10196000FFF782F9064604E0FFF77EF9801B0228A4
:1019700031D828688001F7D4D4E90921DFF8D0C034
:10198000D4E9070694F830304F0894F82C1030430F
:101990000CEB074444EA8212104340EA016040EA3B
:1019A0000370C8F80000286840F080702860FFF7D6
:1019B0005BF9044605E044E0FFF756F9001B0228F6
:1019C00009D828688001F7D53BE000BFFFF74CF944
:1019D000001B022802D90320BDE8F88F2868800187
:1019E000F4D42EE00128D8F8000028D0E16900F4F2
:1019F00080028A4223D1216A00F03F028A421ED12E
:101A0000626A47F6C0710140B1EB821F17D1A16A2B
:101A10004FF0FF3200F4403302EB5101B3EB014FC2
:101A20000DD194F82C1000F07062B2EB016F06D16A
:101A300094F8301000F0E040B0EB017F01D00120BD
:101A4000CAE70020C8E700000838024000700040E4
:101A50000000FFFF401EB0F1807F10B501D30120D0
:101A600010BD4FF0E02460610F21601700F0C2FE4E
:101A70000020A0610721216110BD2DE9F05F04461F
:101A8000D0F880001F461646DDF828900D46202825
:101A900002D00220BDE8F09FE5B1DEB122214FF077
:101AA00000080122C4F88480C4F880102266C4F8BB
:101AB00064801C34FFF7D8F8824654F8140CA687CB
:101AC0004FF48053E687FF211C3C984207D12269DE
:101AD00012B11BE00120DDE740F2FF1116E04FF0EC
:101AE0007F0288B1B0F1805F13D0A4F85C80984287
:101AF000B4F85CB001D1206990B12E460025404673
:101B00004FF0200838803AE0266936B9A4F85C1016
:101B1000EDE7216909B13F21F8E7A4F85C20E6E789
:101B20000026ECE72068C169C9060AD510210162C8
:101B3000388830B1022140466166C4F88000002038
:101B4000A8E72068C16989060DD526B3416A01EA74
:101B50000B0106F8011B3888401C3880B4F85A0085
:101B6000401EA4F85A00B9F1FF3F08D0FFF77CF8F7
:101B7000A0EB0A01494514D8B9F1000F11D0B4F80F
:101B80005A000028CED1B4F85810B4F85A20404674
:101B9000891A3980D1E7406A00EA0B0025F8020B68
:101BA000D9E7C4F88080032074E710B5040002D0A0
:101BB000E06F10B107E0012010BD002084F878002C
:101BC000204600F025F82420E0672068016821F015
:101BD00001010160204600F0FBFA0128ECD0606AA8
:101BE00010B1204600F060FA2068416821F490416D
:101BF00041602068816821F02A01816020680168C5
:101C000041F0010101602046BDE8104000F0B0BA8B
:101C10002DE9F041AAB00446142124A8FEF705FCE2
:101C200090216846FEF701FC1E492068884235D1A4
:101C300040256846002400951194FFF7B9F908B1D2
:101C4000FEF7CAFD1848016841F010010160006804
:101C500000F01000299014481438016841F0020186
:101C60000160006804210226269400F002002990F9
:101C70000327DFF83880B003CDE92771CDE92406CA
:101C800024A94046FEF7BEFE0720249524A9CDE9ED
:101C90002770CDE925644046FEF7B4FE2AB0BDE8C2
:101CA000F08100000010014044380240000402406E
:101CB0002DE9F8430446C06F1F4616460D462028FE
:101CC00002D00220BDE8F8838DB186B10020C4F8AF
:101CD00084002121E167FEF7C7FF8046A068A4F8D1
:101CE0005060A4F85260B0F5805F02D003E001209C
:101CF000E8E7206910B12E46002510E000260EE02E
:101D00008021204600F07CFBB8B9C6B116F8010B63
:101D100021688862B4F85200401EA4F85200B4F85A
:101D2000520043464FF0000200970028E8D14FF0E0
:101D30004001204600F064FB38B10320C2E735F8CB
:101D4000020B2168C0F30800E3E72020E0670020D1
:101D5000B8E7FEE716498023164870B5134A0024F9
:101D60000A60E12504701E04437040F2F45285704D
:101D7000C47004714471C1E901060F48C8600F487E
:101D8000C1E904020846FEF73BFD08B1FEF724FD59
:101D9000074838213838FEF748FB054821224FF420
:101DA000400138380260C0E9044170BD0080024043
:101DB000D000002000000020A0C0072000C00720A5
:101DC000F0B587B014216846FEF72FFB3C48016848
:101DD00041F004010160016801F00401059101680E
:101DE00041F080010160016801F080010591016806
:101DF00041F001010160016801F0010105910168F4
:101E000041F002010160016801F0020105910168E1
:101E100041F008010160016801F0080105910168C5
:101E200041F04001016000680122264E032100F0CC
:101E3000400005903046FEF711FF002244F2840175
:101E40003046FEF70BFF204F002240213846FEF7B8
:101E500005FF00244FF400504FF488118DE8130063
:101E60001A486946FEF7CEFD012544F2870000902E
:101E70006946CDE9015430460394FEF7C3FD0221C3
:101E80004FF4407007238DE8130003221048CDE97A
:101E900003236946FEF7B6FD40200090CDE90154CA
:101EA000694638460394FEF7ADFD80206946CDE9CA
:101EB000000438460294FEF7A5FD07B0F0BD00000F
:101EC000303802400004024000180240000802407E
:101ED000000C02400D48002110B50B4C0C220C4B9D
:101EE0000460C0E90131C160C0E904128161C161CF
:101EF00001624162FFF759FE002803D0BDE810409F
:101F0000FEF76ABC10BD00000010014080010020F7
:101F100000093D000D48002170B50222C0E90321EF
:101F2000012382610624C0E9073141624FF0A045D8
:101F3000C0E90B31C0E90054FEF72EFF002803D0A2
:101F4000BDE87040FEF748BC70BD000008020020EC
:101F5000FEE7FEE7704700007CB505460C46002012
:101F6000ADF80400284600F007FD1D4E01220421B3
:101F70003046FEF773FE012230460221FEF76EFE68
:101F800018480A2311222946FFF792FE0022304604
:101F90000221FEF763FE002230460421FEF75EFEBA
:101FA0000A2000900F48102201AB2146FFF765FD83
:101FB000BDF8040010B1102808D101E003207CBD59
:101FC0002078FE2802D16078EE2801D001207CBD67
:101FD00001202062204600F031FC00207CBD000082
:101FE00000040240800100207047FEF743BE00005D
:101FF00070B594B034216846FEF717FA14210DA885
:10200000FEF713FAFEF7CCFF2148016841F080513A
:102010000160006800F0805012901E48016841F491
:1020200040410160006802244FF4A02100F44040C8
:1020300012900120042308938205D8250926CDE9B2
:102040000642CDE90954CDE90001CDE90B646846AB
:10205000FFF734FB08B172B6FEE7FEF76BFF08B17D
:1020600072B6FEE70FAD00214FF4A0524FF480533B
:1020700085E80E000F20CDE90D0407210DA8FFF71C
:1020800035FA002801D072B6FEE714B070BD00002A
:1020900040380240007000400248016841F470017D
:1020A0000160704788ED00E090F82410C90706D061
:1020B0000168836A4A6822F400321A434A6090F841
:1020C0002410890706D50168C36A4A6822F4803261
:1020D0001A434A6090F82410490706D50168036B3B
:1020E0004A6822F480221A434A6090F824100907B3
:1020F00006D50168436B4A6822F400421A434A60DD
:1021000090F82410C90606D50168836B8A6822F40A
:1021100080521A438A6090F82410890606D5016817
:10212000C36B8A6822F400521A438A6090F8241024
:10213000490611D50168036C4A6822F480121A43DB
:102140004A60016CB1F5801F06D10168436C4A6892
:1021500022F4C0021A434A6090F82410090606D5FA
:102160000168826C486820F4002010434860704782
:10217000F8B500250446C0F88450FEF775FD064604
:1021800020686FF07E470068000708D500223346BC
:102190004FF400112046009700F032F960B9206832
:1021A000006840070AD5002233464FF480012046DC
:1021B000009700F025F908B10320F8BD2020E06762
:1021C000C4F8800025666566002084F87850F8BD64
:1021D0002DE9F04104460368C2698168D4E90450DE
:1021E000DFF8F0C17C4E29431F68002510437B4A6D
:1021F000014307EA0C070F431F604FF400402168BA
:10220000E7684B6823F440533B434B602768A3695E
:10221000216AD7F808C019432CF430630B43BB6024
:102220002168B1420AD1116811F0030152D001298D
:102230007CD0022971D003296ED184E0684B994289
:102240000AD1116811F00C0167D0042965D0082962
:1022500075D00C2960D176E0624B99420AD11168A1
:1022600011F0300159D010296BD0202967D03029C6
:1022700052D168E05C4B99420AD1116811F0C0015B
:102280004BD040295DD0802959D0C02944D15AE093
:10229000564B99420DD1116811F440713DD0B1F502
:1022A000807F4ED0B1F5007F49D0B1F5407F33D16A
:1022B00049E04F4B99420FD1116811F4406109D0A8
:1022C000B1F5806F3DD0B1F5006F38D0B1F5406FFA
:1022D00022D138E0012120E0464B99420DD111680E
:1022E00011F4405119D0B1F5805F2AD0B1F5005FEB
:1022F00025D0B1F5405F0FD125E03F4B99420BD17E
:10230000116811F4404108D0B1F5804F19D08142D5
:1023100015D0B1F5404F16D01021E369374A4FF67A
:10232000EF7683422ED1092949D201E009E006E087
:10233000DFE801F00B0E114513454545160002215B
:10234000EBE70421E9E70821E7E7FFF767F906E093
:10235000FFF774F903E0104602E0FFF77FF978B366
:102360006168400000EB5100B0FBF1F0A0F11001FA
:10237000B14224D84FF6F0732168C0F342021840EE
:10238000104320E009291AD2DFE801F005080B19F3
:102390000D1919191000FFF741F906E0FFF74EF982
:1023A00003E0104602E0FFF759F948B1616800EB1D
:1023B0005100B0FBF1F0A0F11001B14201D90125AB
:1023C00002E0216880B2C8600020A066E06628466E
:1023D000BDE8F081F369FFEF001001409038024042
:1023E0000044004000480040004C004000500040C5
:1023F0000014014000780040007C00400024F400FC
:102400002DE9F0479A4617460E460446089D4FF0C0
:1024100000094FF020084CE0681C4AD0FEF724FC6D
:10242000A0EB0A00A8422AD84DB3206801684907EA
:102430003FD5C069C04300053BD421684FF400601C
:102440000862216851E8000F20F4D07041E80002D2
:10245000002AF6D12068083050E8001F21F0010161
:1024600040E80012002AF5D1C4F87C8084F8789006
:10247000C4F88080C4F884800320BDE8F087206819
:1024800050E8001F21F4D07140E80012002AF6D174
:102490002068083050E8001F21F0010140E80012D8
:1024A000002AF5D1C4F87C8084F87890C4F8808044
:1024B000E2E72068C06936EA000004D00020B84294
:1024C000AAD00020D9E70120F9E7000070B5044642
:1024D0000698049D0D99012815D0E06840F0400051
:1024E000E060204600F028F8A16B41F48031A16340
:1024F000012D07D1A16841F00601A160A16841F05A
:102500002001A16070BDA06B01290A4A20F480302F
:10251000A063E06800EA0200E060E06820F4401098
:10252000E06003D1E06840F48010E060204600F0F5
:1025300003F8DDE7BFFFBDFF08B50E49002200929A
:10254000009B5B1C00938B420CD80369002BF7DACD
:102550000092026942F001020261009A521C00924C
:102560008A4201D9032008BD0269D207F5D10020B3
:1025700008BD0000400D0300D0F8001E21F003014B
:10258000C0F8001ED0F8041841F00201C0F8041889
:10259000002070472DE9F04F0E4604460021DDF87B
:1025A00024B00D46109F0846DDF82C2004EB800C6B
:1025B000CCF80411401C0F28F8D32046AFB1806B33
:1025C00040F4001CC4F838C088460846C4F8000E21
:1025D000D4F80008012A2146C4F800081BD0084698
:1025E000D1F8001841F003011BE0D0F8040840F0D6
:1025F000020CC4F804C8A06B20F4001CC4F838C056
:10260000206840F0400CC4F800C0206840F0800C06
:10261000C4F800C0D8E70846D1F800180BB141F063
:102620000101C0F80018102100F094F800B1012554
:10263000204600F071F800B1012540464FF00069D6
:102640004FF67F334FF0904AC4F81088C4F81488CE
:10265000C4F81C88002114E004EB4112D2F800C930
:10266000BCF1000F06DA11B1C2F800A904E0C4F809
:10267000009901E0C2F80009C2F81009C2F808394F
:10268000491C8E42E8D8002115E000BF04EB41123E
:10269000D2F800CBBCF1000F06DA11B1C2F800ABE2
:1026A00004E0C4F8009B01E0C2F8000BC2F8100B74
:1026B000C2F8083B491C8E42E8D8D4F81038BBF168
:1026C000000F6FF0804223F48073C4F81038A061CB
:1026D000626103D1A06940F01000A061A069094ABD
:1026E0000C9940EA0200A06119B1A06940F008000D
:1026F000A061012F03D1A06903490843A0612846C6
:10270000BDE8F08F00383C8004000040816821F073
:10271000010181600020704708B50D490022009238
:10272000009B5B1C00938B420AD80369002BF7DAED
:10273000009210230361009A521C00928A4201D930
:10274000032008BD0269D206F5D4002008BD0000B0
:10275000400D030018B50E4A00230093009C641C32
:10276000009494420CD80469002CF7DA20240093DA
:1027700044EA811101610099491C0091914201D9FB
:10278000032018BD01698906F5D4002018BD00009A
:10279000400D030070B50446C06801294FF00005E4
:1027A00020F0C040E06001D079B120E0E06840F066
:1027B0000050E0600120FEF711F860696D1C10F018
:1027C000010F10D1322DF5D30DE0E06840F08040CC
:1027D000E0600120FEF702F860696D1C10F0010F47
:1027E00001D0322DF5D3322D01D0002070BD012053
:1027F00070BDFEE7090700284FEA116104DB00F114
:10280000E02080F80014704700F00F0000F1E02095
:1028100080F8141D7047000010B5074C08E000BF99
:1028200011F8013B4340DBB234F8133083EA102047
:10283000521EF5D210BD0000262B000870B50E22E6
:10284000044601460020FFF7E7FFE189884202D0F5
:102850000020206270BD207BA17894F90B6000F00D
:102860000705A28901F00F03A662C1F3021184F8E3
:102870002C50012084F8243084F82510C2F3CB01B9
:10288000B4F90520DFED160A01EE102A9FED150AB6
:1028900001EE901AB8EEC11A9FED132AF8EE611AF4
:1028A00021EE201A21EE001A84ED0D1AB4F903105E
:1028B00001EE101AB8EEC11A61EE200AC4ED0C0A3E
:1028C000D4F80710C4ED0F1A00EE901A2062F8EE4B
:1028D000E00A20EE800A20EE020A84ED0E0A70BDA6
:1028E0000000803BF90FC940000000382DED028B3D
:1028F000FEF7C8F9FFF77CFBFFF762FAFFF72AFA49
:10290000FFF7E8FAFFF706FB184C00210120194FEA
:102910009FED158AB3EE040A2184860360844FF488
:10292000FA7884ED098A84ED0A0ADFED110A84ED54
:102930000B8A84ED0C8AC4ED0D0A0D460B490B4839
:102940004031FFF709FB4046FDF748FF3146384666
:10295000FEF77CF96D1CEDB2062DEFD184ED0A8AED
:10296000002584ED0D8AE9E7000000001800002032
:10297000CDCC4C3D0004024010B590ED0C0AFE2277
:1029800004461120EE21DFED520AB5EEC00A606167
:10299000F1EE10FA4F48227061709FED4F1A02D28B
:1029A000C4ED0C0A05E010EE101A814201DD84ED41
:1029B0000C1A94ED0D0AB5EEC00AF1EE10FA02D22F
:1029C000C4ED0D0A05E010EE101A814201DD84ED20
:1029D0000D1A4249606A884202D99FED410A04E01B
:1029E0004049884203DD9FED400A84ED090A3F49D2
:1029F000A06A884202D99FED3E0A04E03D49884220
:102A000003DD9FED3D0A84ED0A0A3C49E06A8842F5
:102A100002D99FED3B0A04E03A49884203DD9FED6D
:102A20003A0A84ED0B0AD4ED0C2ADFED380A9FED4B
:102A3000380A94F8202082EEA02AA07894F8221078
:102A40009FED341A62F30300DFED331A61F30610D1
:102A5000A0700F2222EE002ABDEEC22A12EE101A3A
:102A6000A4F80B10214694ED0D2AC2EE202A62EE46
:102A7000800AFDEEE00A10EE900AA4F80D00D4EDF5
:102A80000B0A80EE812A22EE000ABDEEC00A10EE8B
:102A9000100AC4F8070094ED0A0AC0EE010A20EEFD
:102AA000A10ABDEEC00A10EE100AA4F8050094EDCC
:102AB000090A20EE210ABDEEC00A10EE100AA4F8A1
:102AC00003000020FFF7A8FEA4F80F00002010BDAF
:102AD00000000000C1CACC41C1CACC41E1FAFFC22A
:102AE000E1FAFFC2E1FAFF42E1FAFF42000049C405
:102AF000000049C40000494400004944C00FC9C84F
:102B0000C00FC9C8C00FC948C00FC948CDCCCC41FF
:102B100000000047F90FC940000080434FF04070AB
:102B2000E1EE100A70470000891112239B322446FF
:102B3000AD573665BF74488CC19D5AAFD3BE6CCAC1
:102B4000E5DB7EE9F7F88110080193331A22A556D8
:102B50002C47B7753E64C99C408DDBBF52AEEDDAA1
:102B600064CBFFF976E802218B30100299132667B7
:102B7000AF763444BD554AADC3BC588ED19F6EEB81
:102B8000E7FA7CC8F5D983310A2091121803A77798
:102B90002E66B5543C45CBBD42ACD99E508FEFFB61
:102BA00066EAFDD874C904428D5316619F702004F3
:102BB000A9153227BB364CCEC5DF5EEDD7FC688841
:102BC000E1997AABF3BA85520C4397711E60A11458
:102BD0002805B3373A26CDDE44CFDFFD56ECE99821
:102BE0006089FBBB72AA06638F7214409D51222537
:102BF000AB343006B9174EEFC7FE5CCCD5DD6AA901
:102C0000E3B8788AF19B87730E6295501C41A33517
:102C10002A24B1163807CFFF46EEDDDC54CDEBB9E0
:102C200062A8F99A708B088481951AA793B62CC272
:102C3000A5D33EE1B7F04008C919522BDB3A644EE8
:102C4000ED5F766DFF7C899400859BB712A6ADD2AF
:102C500024C3BFF136E0C1184809D33B5A2AE55EC8
:102C60006C4FF77D7E6C0AA583B4188691972EE38E
:102C7000A7F23CC0B5D14229CB38500AD91B666FA8
:102C8000EF7E744CFD5D8BB502A499961087AFF36F
:102C900026E2BDD034C1C3394A28D11A580BE77F88
:102CA0006E6EF55C7C4D0CC685D71EE597F42880CA
:102CB000A1913AA3B3B2444ACD5B5669DF78600C68
:102CC000E91D722FFB3E8DD604C79FF516E4A9902F
:102CD0002081BBB332A2C55A4C4BD7795E68E11C48
:102CE000680DF33F7A2E0EE787F61CC495D52AA10E
:102CF000A3B03882B193466BCF7A5448DD59622D28
:102D0000EB3C700EF91F8FF706E69DD414C5ABB1EE
:102D100022A0B9923083C77B4E6AD5585C49E33D07
:102D20006A2CF11E780F0000000000000000010274
:102D30000304060708090000000001020304000064
:102D4000602D000800000020180000003402000878
:102D5000782D00081800002028C107005002000844
:102D60000000000000000000010000001000000052
:082D7000000000000024F40043
:04000005080001F9F5
:00000001FF
